{
  "contractName": "OnChainERC20Token",
  "abi": [
    {
      "inputs": [
        {
          "internalType": "uint256",
          "name": "initialSupply",
          "type": "uint256"
        }
      ],
      "stateMutability": "nonpayable",
      "type": "constructor"
    },
    {
      "anonymous": false,
      "inputs": [
        {
          "indexed": true,
          "internalType": "address",
          "name": "owner",
          "type": "address"
        },
        {
          "indexed": true,
          "internalType": "address",
          "name": "spender",
          "type": "address"
        },
        {
          "indexed": false,
          "internalType": "uint256",
          "name": "value",
          "type": "uint256"
        }
      ],
      "name": "Approval",
      "type": "event"
    },
    {
      "anonymous": false,
      "inputs": [
        {
          "indexed": true,
          "internalType": "address",
          "name": "from",
          "type": "address"
        },
        {
          "indexed": true,
          "internalType": "address",
          "name": "to",
          "type": "address"
        },
        {
          "indexed": false,
          "internalType": "uint256",
          "name": "value",
          "type": "uint256"
        }
      ],
      "name": "Transfer",
      "type": "event"
    },
    {
      "inputs": [
        {
          "internalType": "address",
          "name": "",
          "type": "address"
        },
        {
          "internalType": "address",
          "name": "",
          "type": "address"
        }
      ],
      "name": "_allowances",
      "outputs": [
        {
          "internalType": "uint256",
          "name": "",
          "type": "uint256"
        }
      ],
      "stateMutability": "view",
      "type": "function"
    },
    {
      "inputs": [
        {
          "internalType": "address",
          "name": "",
          "type": "address"
        }
      ],
      "name": "_balances",
      "outputs": [
        {
          "internalType": "uint256",
          "name": "",
          "type": "uint256"
        }
      ],
      "stateMutability": "view",
      "type": "function"
    },
    {
      "inputs": [
        {
          "internalType": "address",
          "name": "owner",
          "type": "address"
        },
        {
          "internalType": "address",
          "name": "spender",
          "type": "address"
        }
      ],
      "name": "allowance",
      "outputs": [
        {
          "internalType": "uint256",
          "name": "",
          "type": "uint256"
        }
      ],
      "stateMutability": "view",
      "type": "function"
    },
    {
      "inputs": [
        {
          "internalType": "address",
          "name": "spender",
          "type": "address"
        },
        {
          "internalType": "uint256",
          "name": "amount",
          "type": "uint256"
        }
      ],
      "name": "approve",
      "outputs": [
        {
          "internalType": "bool",
          "name": "",
          "type": "bool"
        }
      ],
      "stateMutability": "nonpayable",
      "type": "function"
    },
    {
      "inputs": [],
      "name": "decimals",
      "outputs": [
        {
          "internalType": "uint8",
          "name": "",
          "type": "uint8"
        }
      ],
      "stateMutability": "view",
      "type": "function"
    },
    {
      "inputs": [
        {
          "internalType": "address",
          "name": "spender",
          "type": "address"
        },
        {
          "internalType": "uint256",
          "name": "subtractedValue",
          "type": "uint256"
        }
      ],
      "name": "decreaseAllowance",
      "outputs": [
        {
          "internalType": "bool",
          "name": "",
          "type": "bool"
        }
      ],
      "stateMutability": "nonpayable",
      "type": "function"
    },
    {
      "inputs": [
        {
          "internalType": "address",
          "name": "spender",
          "type": "address"
        },
        {
          "internalType": "uint256",
          "name": "addedValue",
          "type": "uint256"
        }
      ],
      "name": "increaseAllowance",
      "outputs": [
        {
          "internalType": "bool",
          "name": "",
          "type": "bool"
        }
      ],
      "stateMutability": "nonpayable",
      "type": "function"
    },
    {
      "inputs": [],
      "name": "name",
      "outputs": [
        {
          "internalType": "string",
          "name": "",
          "type": "string"
        }
      ],
      "stateMutability": "view",
      "type": "function"
    },
    {
      "inputs": [],
      "name": "symbol",
      "outputs": [
        {
          "internalType": "string",
          "name": "",
          "type": "string"
        }
      ],
      "stateMutability": "view",
      "type": "function"
    },
    {
      "inputs": [],
      "name": "totalSupply",
      "outputs": [
        {
          "internalType": "uint256",
          "name": "",
          "type": "uint256"
        }
      ],
      "stateMutability": "view",
      "type": "function"
    },
    {
      "inputs": [
        {
          "internalType": "address",
          "name": "_tokenOwner",
          "type": "address"
        }
      ],
      "name": "balanceOf",
      "outputs": [
        {
          "internalType": "uint256",
          "name": "",
          "type": "uint256"
        }
      ],
      "stateMutability": "view",
      "type": "function"
    },
    {
      "inputs": [
        {
          "internalType": "address",
          "name": "_to",
          "type": "address"
        },
        {
          "internalType": "uint256",
          "name": "_value",
          "type": "uint256"
        }
      ],
      "name": "transfer",
      "outputs": [
        {
          "internalType": "bool",
          "name": "",
          "type": "bool"
        }
      ],
      "stateMutability": "nonpayable",
      "type": "function"
    },
    {
      "inputs": [
        {
          "internalType": "address",
          "name": "_from",
          "type": "address"
        },
        {
          "internalType": "address",
          "name": "_to",
          "type": "address"
        },
        {
          "internalType": "uint256",
          "name": "_value",
          "type": "uint256"
        }
      ],
      "name": "transferFrom",
      "outputs": [
        {
          "internalType": "bool",
          "name": "",
          "type": "bool"
        }
      ],
      "stateMutability": "nonpayable",
      "type": "function"
    },
    {
      "inputs": [
        {
          "internalType": "address",
          "name": "_owner",
          "type": "address"
        },
        {
          "internalType": "address",
          "name": "_spender",
          "type": "address"
        }
      ],
      "name": "allowances",
      "outputs": [
        {
          "internalType": "uint256",
          "name": "",
          "type": "uint256"
        }
      ],
      "stateMutability": "nonpayable",
      "type": "function"
    }
  ],
  "bytecode": "0x60806040523480156200001157600080fd5b5060405162000c3d38038062000c3d83398101604081905262000034916200024e565b6040518060400160405280600d81526020016c27b721b430b4b7102a37b5b2b760991b8152506040518060400160405280600381526020016213d39560ea1b81525081600390805190602001906200008e929190620001a8565b508051620000a4906004906020840190620001a8565b505050620000b93382620000c060201b60201c565b50620002cc565b6001600160a01b0382166200011b5760405162461bcd60e51b815260206004820152601f60248201527f45524332303a206d696e7420746f20746865207a65726f206164647265737300604482015260640160405180910390fd5b80600260008282546200012f919062000268565b90915550506001600160a01b038216600090815260208190526040812080548392906200015e90849062000268565b90915550506040518181526001600160a01b038316906000907fddf252ad1be2c89b69c2b068fc378daa952ba7f163c4a11628f55a4df523b3ef9060200160405180910390a35050565b828054620001b6906200028f565b90600052602060002090601f016020900481019282620001da576000855562000225565b82601f10620001f557805160ff191683800117855562000225565b8280016001018555821562000225579182015b828111156200022557825182559160200191906001019062000208565b506200023392915062000237565b5090565b5b8082111562000233576000815560010162000238565b6000602082840312156200026157600080fd5b5051919050565b600082198211156200028a57634e487b7160e01b600052601160045260246000fd5b500190565b600181811c90821680620002a457607f821691505b60208210811415620002c657634e487b7160e01b600052602260045260246000fd5b50919050565b61096180620002dc6000396000f3fe608060405234801561001057600080fd5b50600436106100ea5760003560e01c806355b6ed5c1161008c57806395d89b411161006657806395d89b4114610224578063a457c2d71461022c578063a9059cbb1461023f578063dd62ed3e1461025257600080fd5b806355b6ed5c146101a25780636ebcf607146101db57806370a08231146101fb57600080fd5b806318160ddd116100c857806318160ddd1461016557806323b872dd1461016d578063313ce56714610180578063395093511461018f57600080fd5b8063024c2ddd146100ef57806306fdde031461012d578063095ea7b314610142575b600080fd5b61011a6100fd3660046107ba565b600660209081526000928352604080842090915290825290205481565b6040519081526020015b60405180910390f35b61013561028b565b60405161012491906107ed565b610155610150366004610842565b61031d565b6040519015158152602001610124565b60025461011a565b61015561017b36600461086c565b610333565b60405160128152602001610124565b61015561019d366004610842565b6103ba565b61011a6101b03660046107ba565b6001600160a01b03918216600090815260066020908152604080832093909416825291909152205490565b61011a6101e93660046108a8565b60056020526000908152604090205481565b61011a6102093660046108a8565b6001600160a01b031660009081526005602052604090205490565b6101356103f6565b61015561023a366004610842565b610405565b61015561024d366004610842565b61049e565b61011a6102603660046107ba565b6001600160a01b03918216600090815260016020908152604080832093909416825291909152205490565b60606003805461029a906108ca565b80601f01602080910402602001604051908101604052809291908181526020018280546102c6906108ca565b80156103135780601f106102e857610100808354040283529160200191610313565b820191906000526020600020905b8154815290600101906020018083116102f657829003601f168201915b5050505050905090565b600061032a3384846104ab565b50600192915050565b60006103408484846105cf565b6001600160a01b0384166000908152600660209081526040808320338452909152902054828110156103af5760405162461bcd60e51b8152602060048201526013602482015272496e73756666696369656e7420746f6b656e7360681b60448201526064015b60405180910390fd5b506001949350505050565b3360008181526001602090815260408083206001600160a01b0387168452909152812054909161032a9185906103f1908690610905565b6104ab565b60606004805461029a906108ca565b3360009081526001602090815260408083206001600160a01b0386168452909152812054828110156104875760405162461bcd60e51b815260206004820152602560248201527f45524332303a2064656372656173656420616c6c6f77616e63652062656c6f77604482015264207a65726f60d81b60648201526084016103a6565b61049433858584036104ab565b5060019392505050565b600061032a3384846105cf565b6001600160a01b03831661050d5760405162461bcd60e51b8152602060048201526024808201527f45524332303a20617070726f76652066726f6d20746865207a65726f206164646044820152637265737360e01b60648201526084016103a6565b6001600160a01b03821661056e5760405162461bcd60e51b815260206004820152602260248201527f45524332303a20617070726f766520746f20746865207a65726f206164647265604482015261737360f01b60648201526084016103a6565b6001600160a01b0383811660008181526001602090815260408083209487168084529482529182902085905590518481527f8c5be1e5ebec7d5bd14f71427d1e84f3dd0314c0f7b2291e5b200ac8c7c3b925910160405180910390a3505050565b6001600160a01b0383166106335760405162461bcd60e51b815260206004820152602560248201527f45524332303a207472616e736665722066726f6d20746865207a65726f206164604482015264647265737360d81b60648201526084016103a6565b6001600160a01b0382166106955760405162461bcd60e51b815260206004820152602360248201527f45524332303a207472616e7366657220746f20746865207a65726f206164647260448201526265737360e81b60648201526084016103a6565b6001600160a01b0383166000908152602081905260409020548181101561070d5760405162461bcd60e51b815260206004820152602660248201527f45524332303a207472616e7366657220616d6f756e7420657863656564732062604482015265616c616e636560d01b60648201526084016103a6565b6001600160a01b03808516600090815260208190526040808220858503905591851681529081208054849290610744908490610905565b92505081905550826001600160a01b0316846001600160a01b03167fddf252ad1be2c89b69c2b068fc378daa952ba7f163c4a11628f55a4df523b3ef8460405161079091815260200190565b60405180910390a350505050565b80356001600160a01b03811681146107b557600080fd5b919050565b600080604083850312156107cd57600080fd5b6107d68361079e565b91506107e46020840161079e565b90509250929050565b600060208083528351808285015260005b8181101561081a578581018301518582016040015282016107fe565b8181111561082c576000604083870101525b50601f01601f1916929092016040019392505050565b6000806040838503121561085557600080fd5b61085e8361079e565b946020939093013593505050565b60008060006060848603121561088157600080fd5b61088a8461079e565b92506108986020850161079e565b9150604084013590509250925092565b6000602082840312156108ba57600080fd5b6108c38261079e565b9392505050565b600181811c908216806108de57607f821691505b602082108114156108ff57634e487b7160e01b600052602260045260246000fd5b50919050565b6000821982111561092657634e487b7160e01b600052601160045260246000fd5b50019056fea2646970667358221220492d97ca8379a92abea706f679c89b83ff7e22a4618fa2346697c202bde249f564736f6c634300080b0033",
  "immutableReferences": {},
  "source": "// SPDX-License-Identifier: MIT\npragma solidity ^0.8.0;\nimport \"@openzeppelin/contracts/token/ERC20/ERC20.sol\";\n\ncontract OnChainERC20Token is ERC20 {\n\n  mapping(address => uint ) public _balances;\n  mapping(address => mapping(address => uint)) public _allowances;\n\n  constructor(uint initialSupply) public ERC20(\"OnChain Token\",\"ONT\") {\n    _mint(msg.sender, initialSupply);\n  }\n\n  function balanceOf(address _tokenOwner) public view virtual override returns(uint){\n    return _balances[_tokenOwner];\n  }\n\n  function transfer(address _to, uint _value) public virtual override returns(bool){\n      _transfer(msg.sender, _to, _value);\n      return true;\n  }\n\n  function transferFrom(address _from, address _to, uint _value) public virtual override returns(bool){\n    _transfer(_from, _to, _value);\n    uint currentAllowance = _allowances[_from][msg.sender];\n    require(currentAllowance >= _value,\"Insufficient tokens\");\n    return true;\n  }\n\n  function allowances(address _owner, address _spender) public virtual returns(uint){\n    return _allowances[_owner][_spender];\n  }\n}\n",
  "sourcePath": "D:/Dickens/Programming/Blockchain/Projects/on-chain/contracts/OnChainERC20Token.sol",
  "compiler": {
    "name": "solc",
    "version": "0.8.11+commit.d7f03943.Emscripten.clang"
  },
  "schemaVersion": "3.4.1",
  "updatedAt": "2021-12-24T20:04:20.590Z",
  "devdoc": {
    "kind": "dev",
    "methods": {
      "allowance(address,address)": {
        "details": "See {IERC20-allowance}."
      },
      "approve(address,uint256)": {
        "details": "See {IERC20-approve}. Requirements: - `spender` cannot be the zero address."
      },
      "decimals()": {
        "details": "Returns the number of decimals used to get its user representation. For example, if `decimals` equals `2`, a balance of `505` tokens should be displayed to a user as `5.05` (`505 / 10 ** 2`). Tokens usually opt for a value of 18, imitating the relationship between Ether and Wei. This is the value {ERC20} uses, unless this function is overridden; NOTE: This information is only used for _display_ purposes: it in no way affects any of the arithmetic of the contract, including {IERC20-balanceOf} and {IERC20-transfer}."
      },
      "decreaseAllowance(address,uint256)": {
        "details": "Atomically decreases the allowance granted to `spender` by the caller. This is an alternative to {approve} that can be used as a mitigation for problems described in {IERC20-approve}. Emits an {Approval} event indicating the updated allowance. Requirements: - `spender` cannot be the zero address. - `spender` must have allowance for the caller of at least `subtractedValue`."
      },
      "increaseAllowance(address,uint256)": {
        "details": "Atomically increases the allowance granted to `spender` by the caller. This is an alternative to {approve} that can be used as a mitigation for problems described in {IERC20-approve}. Emits an {Approval} event indicating the updated allowance. Requirements: - `spender` cannot be the zero address."
      },
      "name()": {
        "details": "Returns the name of the token."
      },
      "symbol()": {
        "details": "Returns the symbol of the token, usually a shorter version of the name."
      },
      "totalSupply()": {
        "details": "See {IERC20-totalSupply}."
      }
    },
    "version": 1
  },
  "userdoc": {
    "kind": "user",
    "methods": {},
    "version": 1
  }
}