{
  "contractName": "StringStorage",
  "abi": [
    {
      "inputs": [],
      "stateMutability": "nonpayable",
      "type": "constructor"
    },
    {
      "anonymous": false,
      "inputs": [
        {
          "indexed": true,
          "internalType": "address",
          "name": "user",
          "type": "address"
        },
        {
          "indexed": true,
          "internalType": "string",
          "name": "stringValue",
          "type": "string"
        }
      ],
      "name": "NewString",
      "type": "event"
    },
    {
      "anonymous": false,
      "inputs": [
        {
          "indexed": true,
          "internalType": "address",
          "name": "previousOwner",
          "type": "address"
        },
        {
          "indexed": true,
          "internalType": "address",
          "name": "newOwner",
          "type": "address"
        }
      ],
      "name": "OwnershipTransferred",
      "type": "event"
    },
    {
      "inputs": [
        {
          "internalType": "uint256",
          "name": "",
          "type": "uint256"
        }
      ],
      "name": "myStrings",
      "outputs": [
        {
          "internalType": "string",
          "name": "",
          "type": "string"
        }
      ],
      "stateMutability": "view",
      "type": "function"
    },
    {
      "inputs": [],
      "name": "owner",
      "outputs": [
        {
          "internalType": "address",
          "name": "",
          "type": "address"
        }
      ],
      "stateMutability": "view",
      "type": "function"
    },
    {
      "inputs": [],
      "name": "renounceOwnership",
      "outputs": [],
      "stateMutability": "nonpayable",
      "type": "function"
    },
    {
      "inputs": [],
      "name": "totalStrings",
      "outputs": [
        {
          "internalType": "uint256",
          "name": "",
          "type": "uint256"
        }
      ],
      "stateMutability": "view",
      "type": "function"
    },
    {
      "inputs": [
        {
          "internalType": "address",
          "name": "newOwner",
          "type": "address"
        }
      ],
      "name": "transferOwnership",
      "outputs": [],
      "stateMutability": "nonpayable",
      "type": "function"
    },
    {
      "inputs": [
        {
          "internalType": "string",
          "name": "_string",
          "type": "string"
        }
      ],
      "name": "addNewString",
      "outputs": [],
      "stateMutability": "nonpayable",
      "type": "function"
    }
  ],
  "bytecode": "0x6080604052600060025534801561001557600080fd5b5061001f33610024565b610074565b600080546001600160a01b038381166001600160a01b0319831681178455604051919092169283917f8be0079c531659141344cd1fd0a4f28419497f9722a3daafe3b4186f6b6457e09190a35050565b6106ce806100836000396000f3fe608060405234801561001057600080fd5b50600436106100625760003560e01c806352c1b83f14610067578063715018a614610083578063806fb4111461008d5780638da5cb5b146100a0578063b9bb4167146100bb578063f2fde38b146100db575b600080fd5b61007060025481565b6040519081526020015b60405180910390f35b61008b6100ee565b005b61008b61009b366004610490565b61012d565b6000546040516001600160a01b03909116815260200161007a565b6100ce6100c9366004610541565b610237565b60405161007a919061058a565b61008b6100e93660046105bd565b6102e3565b6000546001600160a01b031633146101215760405162461bcd60e51b8152600401610118906105e6565b60405180910390fd5b61012b600061037e565b565b6000546001600160a01b031633146101575760405162461bcd60e51b8152600401610118906105e6565b60008151116101a05760405162461bcd60e51b815260206004820152601560248201527456616c75652063616e6e6f7420626520656d70747960581b6044820152606401610118565b60018054808201825560009190915281516101e2917fb10e2d527612073b26eecdfd717e6a320cf44b4afac2b0732d9fcbe2b7fa0cf6019060208401906103e1565b506002546101f19060016103ce565b60025560405161020290829061061b565b6040519081900381209033907f5378f10952c6bd6969ab3de391147ab88661bd4e1373de102618ece21e00ddc190600090a350565b6001818154811061024757600080fd5b90600052602060002001600091509050805461026290610637565b80601f016020809104026020016040519081016040528092919081815260200182805461028e90610637565b80156102db5780601f106102b0576101008083540402835291602001916102db565b820191906000526020600020905b8154815290600101906020018083116102be57829003601f168201915b505050505081565b6000546001600160a01b0316331461030d5760405162461bcd60e51b8152600401610118906105e6565b6001600160a01b0381166103725760405162461bcd60e51b815260206004820152602660248201527f4f776e61626c653a206e6577206f776e657220697320746865207a65726f206160448201526564647265737360d01b6064820152608401610118565b61037b8161037e565b50565b600080546001600160a01b038381166001600160a01b0319831681178455604051919092169283917f8be0079c531659141344cd1fd0a4f28419497f9722a3daafe3b4186f6b6457e09190a35050565b60006103da8284610672565b9392505050565b8280546103ed90610637565b90600052602060002090601f01602090048101928261040f5760008555610455565b82601f1061042857805160ff1916838001178555610455565b82800160010185558215610455579182015b8281111561045557825182559160200191906001019061043a565b50610461929150610465565b5090565b5b808211156104615760008155600101610466565b634e487b7160e01b600052604160045260246000fd5b6000602082840312156104a257600080fd5b813567ffffffffffffffff808211156104ba57600080fd5b818401915084601f8301126104ce57600080fd5b8135818111156104e0576104e061047a565b604051601f8201601f19908116603f011681019083821181831017156105085761050861047a565b8160405282815287602084870101111561052157600080fd5b826020860160208301376000928101602001929092525095945050505050565b60006020828403121561055357600080fd5b5035919050565b60005b8381101561057557818101518382015260200161055d565b83811115610584576000848401525b50505050565b60208152600082518060208401526105a981604085016020870161055a565b601f01601f19169190910160400192915050565b6000602082840312156105cf57600080fd5b81356001600160a01b03811681146103da57600080fd5b6020808252818101527f4f776e61626c653a2063616c6c6572206973206e6f7420746865206f776e6572604082015260600190565b6000825161062d81846020870161055a565b9190910192915050565b600181811c9082168061064b57607f821691505b6020821081141561066c57634e487b7160e01b600052602260045260246000fd5b50919050565b6000821982111561069357634e487b7160e01b600052601160045260246000fd5b50019056fea26469706673582212202d67adb2d9d65282b0152cd73a054d89559d7795c88e18bbbd1a5ccbd7994a2764736f6c634300080b0033",
  "immutableReferences": {},
  "source": "// SPDX-License-Identifier: MIT\npragma solidity ^0.8.0;\nimport \"@openzeppelin/contracts/utils/math/SafeMath.sol\";\nimport \"@openzeppelin/contracts/access/Ownable.sol\";\n\n/**\n  * @dev A Simple stmart contract for string storage\n  * @author Dickens Odera dickensodera9@gmail.com\n */\ncontract StringStorage is Ownable {\n  using SafeMath for uint256;\n  string[] public myStrings;\n  uint public totalStrings = 0; //to help keep track of the number of strings\n\n  event NewString(address indexed user, string indexed stringValue);\n\n  constructor() public {\n  }\n\n  /**\n    * @dev enable the smart contract owner to add new strings\n    * @param _string string\n   */\n  function addNewString(string memory _string) public onlyOwner{\n    require(bytes(_string).length > 0,\"Value cannot be empty\"); //ensure not an empty string value\n    myStrings.push(_string);\n    totalStrings = totalStrings.add(1); //to avoid overflow\n    emit NewString(msg.sender, _string); //to help in Logging\n  }\n}\n",
  "sourcePath": "D:/Dickens/Programming/Blockchain/Projects/on-chain/contracts/StringStorage.sol",
  "compiler": {
    "name": "solc",
    "version": "0.8.11+commit.d7f03943.Emscripten.clang"
  },
  "schemaVersion": "3.4.1",
  "updatedAt": "2021-12-23T15:44:56.926Z",
  "devdoc": {
    "author": "Dickens Odera dickensodera9@gmail.com",
    "details": "A Simple stmart contract for string storage",
    "kind": "dev",
    "methods": {
      "addNewString(string)": {
        "details": "enable the smart contract owner to add new strings",
        "params": {
          "_string": "string"
        }
      },
      "owner()": {
        "details": "Returns the address of the current owner."
      },
      "renounceOwnership()": {
        "details": "Leaves the contract without owner. It will not be possible to call `onlyOwner` functions anymore. Can only be called by the current owner. NOTE: Renouncing ownership will leave the contract without an owner, thereby removing any functionality that is only available to the owner."
      },
      "transferOwnership(address)": {
        "details": "Transfers ownership of the contract to a new account (`newOwner`). Can only be called by the current owner."
      }
    },
    "version": 1
  },
  "userdoc": {
    "kind": "user",
    "methods": {},
    "version": 1
  }
}