{
  "contractName": "StringStorage",
  "abi": [
    {
      "inputs": [],
      "stateMutability": "nonpayable",
      "type": "constructor"
    },
    {
      "anonymous": false,
      "inputs": [
        {
          "indexed": true,
          "internalType": "address",
          "name": "user",
          "type": "address"
        },
        {
          "indexed": true,
          "internalType": "string",
          "name": "stringValue",
          "type": "string"
        }
      ],
      "name": "NewString",
      "type": "event"
    },
    {
      "anonymous": false,
      "inputs": [
        {
          "indexed": true,
          "internalType": "address",
          "name": "previousOwner",
          "type": "address"
        },
        {
          "indexed": true,
          "internalType": "address",
          "name": "newOwner",
          "type": "address"
        }
      ],
      "name": "OwnershipTransferred",
      "type": "event"
    },
    {
      "inputs": [
        {
          "internalType": "uint256",
          "name": "",
          "type": "uint256"
        }
      ],
      "name": "myStrings",
      "outputs": [
        {
          "internalType": "string",
          "name": "",
          "type": "string"
        }
      ],
      "stateMutability": "view",
      "type": "function"
    },
    {
      "inputs": [],
      "name": "owner",
      "outputs": [
        {
          "internalType": "address",
          "name": "",
          "type": "address"
        }
      ],
      "stateMutability": "view",
      "type": "function"
    },
    {
      "inputs": [],
      "name": "renounceOwnership",
      "outputs": [],
      "stateMutability": "nonpayable",
      "type": "function"
    },
    {
      "inputs": [],
      "name": "totalStrings",
      "outputs": [
        {
          "internalType": "uint256",
          "name": "",
          "type": "uint256"
        }
      ],
      "stateMutability": "view",
      "type": "function"
    },
    {
      "inputs": [
        {
          "internalType": "address",
          "name": "newOwner",
          "type": "address"
        }
      ],
      "name": "transferOwnership",
      "outputs": [],
      "stateMutability": "nonpayable",
      "type": "function"
    },
    {
      "inputs": [
        {
          "internalType": "string",
          "name": "_string",
          "type": "string"
        },
        {
          "internalType": "contract IERC20",
          "name": "token",
          "type": "address"
        }
      ],
      "name": "addNewString",
      "outputs": [],
      "stateMutability": "nonpayable",
      "type": "function"
    }
  ],
  "bytecode": "0x6080604052600060025534801561001557600080fd5b5061001f33610024565b610074565b600080546001600160a01b038381166001600160a01b0319831681178455604051919092169283917f8be0079c531659141344cd1fd0a4f28419497f9722a3daafe3b4186f6b6457e09190a35050565b61088e806100836000396000f3fe608060405234801561001057600080fd5b50600436106100625760003560e01c806352c1b83f14610067578063715018a61461008357806382bff47f1461008d5780638da5cb5b146100a0578063b9bb4167146100bb578063f2fde38b146100db575b600080fd5b61007060025481565b6040519081526020015b60405180910390f35b61008b6100ee565b005b61008b61009b366004610610565b61012d565b6000546040516001600160a01b03909116815260200161007a565b6100ce6100c93660046106d2565b610392565b60405161007a919061071b565b61008b6100e936600461074e565b61043e565b6000546001600160a01b031633146101215760405162461bcd60e51b81526004016101189061076b565b60405180910390fd5b61012b60006104d9565b565b6000546001600160a01b031633146101575760405162461bcd60e51b81526004016101189061076b565b60008251116101a05760405162461bcd60e51b815260206004820152601560248201527456616c75652063616e6e6f7420626520656d70747960581b6044820152606401610118565b6040516370a0823160e01b81523360048201526000906001600160a01b038316906370a0823190602401602060405180830381865afa1580156101e7573d6000803e3d6000fd5b505050506040513d601f19601f8201168201806040525081019061020b91906107a0565b9050603281101561025e5760405162461bcd60e51b815260206004820152601a60248201527f496e73756666696369656e7420746f6b656e2062616c616e63650000000000006044820152606401610118565b816001600160a01b03166323b872dd336102806000546001600160a01b031690565b6040516001600160e01b031960e085901b1681526001600160a01b03928316600482015291166024820152603260448201526064016020604051808303816000875af11580156102d4573d6000803e3d6000fd5b505050506040513d601f19601f820116820180604052508101906102f891906107b9565b50600180548082018255600091909152835161033b917fb10e2d527612073b26eecdfd717e6a320cf44b4afac2b0732d9fcbe2b7fa0cf60190602086019061053c565b5060025461034a906001610529565b60025560405161035b9084906107db565b6040519081900381209033907f5378f10952c6bd6969ab3de391147ab88661bd4e1373de102618ece21e00ddc190600090a3505050565b600181815481106103a257600080fd5b9060005260206000200160009150905080546103bd906107f7565b80601f01602080910402602001604051908101604052809291908181526020018280546103e9906107f7565b80156104365780601f1061040b57610100808354040283529160200191610436565b820191906000526020600020905b81548152906001019060200180831161041957829003601f168201915b505050505081565b6000546001600160a01b031633146104685760405162461bcd60e51b81526004016101189061076b565b6001600160a01b0381166104cd5760405162461bcd60e51b815260206004820152602660248201527f4f776e61626c653a206e6577206f776e657220697320746865207a65726f206160448201526564647265737360d01b6064820152608401610118565b6104d6816104d9565b50565b600080546001600160a01b038381166001600160a01b0319831681178455604051919092169283917f8be0079c531659141344cd1fd0a4f28419497f9722a3daafe3b4186f6b6457e09190a35050565b60006105358284610832565b9392505050565b828054610548906107f7565b90600052602060002090601f01602090048101928261056a57600085556105b0565b82601f1061058357805160ff19168380011785556105b0565b828001600101855582156105b0579182015b828111156105b0578251825591602001919060010190610595565b506105bc9291506105c0565b5090565b5b808211156105bc57600081556001016105c1565b634e487b7160e01b600052604160045260246000fd5b6001600160a01b03811681146104d657600080fd5b803561060b816105eb565b919050565b6000806040838503121561062357600080fd5b823567ffffffffffffffff8082111561063b57600080fd5b818501915085601f83011261064f57600080fd5b813581811115610661576106616105d5565b604051601f8201601f19908116603f01168101908382118183101715610689576106896105d5565b816040528281528860208487010111156106a257600080fd5b8260208601602083013760006020848301015280965050505050506106c960208401610600565b90509250929050565b6000602082840312156106e457600080fd5b5035919050565b60005b838110156107065781810151838201526020016106ee565b83811115610715576000848401525b50505050565b602081526000825180602084015261073a8160408501602087016106eb565b601f01601f19169190910160400192915050565b60006020828403121561076057600080fd5b8135610535816105eb565b6020808252818101527f4f776e61626c653a2063616c6c6572206973206e6f7420746865206f776e6572604082015260600190565b6000602082840312156107b257600080fd5b5051919050565b6000602082840312156107cb57600080fd5b8151801515811461053557600080fd5b600082516107ed8184602087016106eb565b9190910192915050565b600181811c9082168061080b57607f821691505b6020821081141561082c57634e487b7160e01b600052602260045260246000fd5b50919050565b6000821982111561085357634e487b7160e01b600052601160045260246000fd5b50019056fea2646970667358221220652f72859edc809cf05042a1fcf1ed6cdc0a368477a59505a54c59816bb918ad64736f6c634300080b0033",
  "immutableReferences": {},
  "source": "// SPDX-License-Identifier: MIT\npragma solidity ^0.8.0;\nimport \"@openzeppelin/contracts/utils/math/SafeMath.sol\";\nimport \"@openzeppelin/contracts/access/Ownable.sol\";\nimport \"@openzeppelin/contracts/token/ERC20/ERC20.sol\";\nimport \"@openzeppelin/contracts/interfaces/IERC20.sol\";\nimport \"./OnChainERC20Token.sol\";\n\n/**\n  * @dev A Simple stmart contract for string storage\n  * @author Dickens Odera dickensodera9@gmail.com\n */\ncontract StringStorage is Ownable {\n  using SafeMath for uint256;\n  string[] public myStrings;\n  uint public totalStrings = 0; //to help keep track of the number of strings\n\n  event NewString(address indexed user, string indexed stringValue);\n\n  constructor() public {\n  }\n\n  /**\n    * @dev sends 50 ERC20 tokens to the smart contract owner on addition of a new string\n    * @param _string string\n    * @param token IERC20\n   */\n  function addNewString(string memory _string, IERC20  token) public onlyOwner{\n    require(bytes(_string).length > 0,\"Value cannot be empty\"); //ensure not an empty string value\n    uint balance = token.balanceOf(msg.sender);\n    require(balance >= 50,\"Insufficient token balance\");\n    token.transferFrom(msg.sender, owner(), 50);\n    myStrings.push(_string);\n    totalStrings = totalStrings.add(1); //to avoid overflow\n    emit NewString(msg.sender, _string); //to help in Logging\n  }\n}\n",
  "sourcePath": "D:/Dickens/Programming/Blockchain/Projects/on-chain/contracts/StringStorage.sol",
  "compiler": {
    "name": "solc",
    "version": "0.8.11+commit.d7f03943.Emscripten.clang"
  },
  "schemaVersion": "3.4.1",
  "updatedAt": "2021-12-24T20:04:20.645Z",
  "devdoc": {
    "author": "Dickens Odera dickensodera9@gmail.com",
    "details": "A Simple stmart contract for string storage",
    "kind": "dev",
    "methods": {
      "addNewString(string,address)": {
        "details": "sends 50 ERC20 tokens to the smart contract owner on addition of a new string",
        "params": {
          "_string": "string",
          "token": "IERC20"
        }
      },
      "owner()": {
        "details": "Returns the address of the current owner."
      },
      "renounceOwnership()": {
        "details": "Leaves the contract without owner. It will not be possible to call `onlyOwner` functions anymore. Can only be called by the current owner. NOTE: Renouncing ownership will leave the contract without an owner, thereby removing any functionality that is only available to the owner."
      },
      "transferOwnership(address)": {
        "details": "Transfers ownership of the contract to a new account (`newOwner`). Can only be called by the current owner."
      }
    },
    "version": 1
  },
  "userdoc": {
    "kind": "user",
    "methods": {},
    "version": 1
  }
}